{
  "contractName": "MarketPlace",
  "abi": [
    {
      "constant": true,
      "inputs": [],
      "name": "CountAllItems",
      "outputs": [
        {
          "name": "count",
          "type": "uint256"
        }
      ],
      "payable": false,
      "stateMutability": "view",
      "type": "function"
    },
    {
      "constant": true,
      "inputs": [
        {
          "name": "m",
          "type": "address"
        }
      ],
      "name": "GetMember",
      "outputs": [
        {
          "name": "name",
          "type": "string"
        },
        {
          "name": "surname",
          "type": "string"
        },
        {
          "name": "id",
          "type": "string"
        }
      ],
      "payable": false,
      "stateMutability": "view",
      "type": "function"
    },
    {
      "constant": false,
      "inputs": [
        {
          "name": "name",
          "type": "string"
        },
        {
          "name": "surname",
          "type": "string"
        },
        {
          "name": "iddoc",
          "type": "string"
        }
      ],
      "name": "NewMember",
      "outputs": [],
      "payable": false,
      "stateMutability": "nonpayable",
      "type": "function"
    },
    {
      "constant": false,
      "inputs": [
        {
          "name": "id",
          "type": "uint256"
        },
        {
          "name": "f",
          "type": "int256"
        }
      ],
      "name": "OrderFeedback",
      "outputs": [],
      "payable": false,
      "stateMutability": "nonpayable",
      "type": "function"
    },
    {
      "constant": true,
      "inputs": [
        {
          "name": "i",
          "type": "uint256"
        }
      ],
      "name": "GetAd",
      "outputs": [
        {
          "name": "offerer",
          "type": "address"
        },
        {
          "name": "merch_type",
          "type": "string"
        },
        {
          "name": "quantity",
          "type": "uint256"
        },
        {
          "name": "price",
          "type": "uint256"
        },
        {
          "name": "description",
          "type": "string"
        },
        {
          "name": "accepted",
          "type": "uint256"
        },
        {
          "name": "rating",
          "type": "int256"
        }
      ],
      "payable": false,
      "stateMutability": "view",
      "type": "function"
    },
    {
      "constant": false,
      "inputs": [
        {
          "name": "itemid",
          "type": "uint256"
        }
      ],
      "name": "BuyItem",
      "outputs": [],
      "payable": false,
      "stateMutability": "nonpayable",
      "type": "function"
    },
    {
      "constant": true,
      "inputs": [
        {
          "name": "i",
          "type": "uint256"
        }
      ],
      "name": "GetMyItem",
      "outputs": [
        {
          "name": "merch_type",
          "type": "string"
        },
        {
          "name": "quantity",
          "type": "uint256"
        },
        {
          "name": "price",
          "type": "uint256"
        },
        {
          "name": "description",
          "type": "string"
        }
      ],
      "payable": false,
      "stateMutability": "view",
      "type": "function"
    },
    {
      "constant": true,
      "inputs": [
        {
          "name": "i",
          "type": "uint256"
        }
      ],
      "name": "GetMyAd",
      "outputs": [
        {
          "name": "merch_type",
          "type": "string"
        },
        {
          "name": "quantity",
          "type": "uint256"
        },
        {
          "name": "price",
          "type": "uint256"
        },
        {
          "name": "description",
          "type": "string"
        }
      ],
      "payable": false,
      "stateMutability": "view",
      "type": "function"
    },
    {
      "constant": false,
      "inputs": [],
      "name": "BecomeFair",
      "outputs": [],
      "payable": false,
      "stateMutability": "nonpayable",
      "type": "function"
    },
    {
      "constant": true,
      "inputs": [],
      "name": "CountMyItems",
      "outputs": [
        {
          "name": "count",
          "type": "uint256"
        }
      ],
      "payable": false,
      "stateMutability": "view",
      "type": "function"
    },
    {
      "constant": true,
      "inputs": [],
      "name": "CountAllAds",
      "outputs": [
        {
          "name": "count",
          "type": "uint256"
        }
      ],
      "payable": false,
      "stateMutability": "view",
      "type": "function"
    },
    {
      "constant": true,
      "inputs": [],
      "name": "CountMyAds",
      "outputs": [
        {
          "name": "count",
          "type": "uint256"
        }
      ],
      "payable": false,
      "stateMutability": "view",
      "type": "function"
    },
    {
      "constant": false,
      "inputs": [
        {
          "name": "merch_type",
          "type": "string"
        },
        {
          "name": "quantity",
          "type": "uint256"
        },
        {
          "name": "price",
          "type": "uint256"
        },
        {
          "name": "description",
          "type": "string"
        }
      ],
      "name": "AddBuyerAd",
      "outputs": [],
      "payable": false,
      "stateMutability": "nonpayable",
      "type": "function"
    },
    {
      "constant": false,
      "inputs": [
        {
          "name": "idoffer",
          "type": "uint256"
        },
        {
          "name": "idinquiry",
          "type": "uint256"
        }
      ],
      "name": "AcceptItem",
      "outputs": [],
      "payable": false,
      "stateMutability": "nonpayable",
      "type": "function"
    },
    {
      "constant": false,
      "inputs": [
        {
          "name": "idoffer",
          "type": "uint256"
        },
        {
          "name": "idinquiry",
          "type": "uint256"
        }
      ],
      "name": "SendItem",
      "outputs": [],
      "payable": false,
      "stateMutability": "nonpayable",
      "type": "function"
    },
    {
      "constant": true,
      "inputs": [
        {
          "name": "i",
          "type": "uint256"
        }
      ],
      "name": "GetItem",
      "outputs": [
        {
          "name": "id",
          "type": "uint256"
        },
        {
          "name": "seller",
          "type": "address"
        },
        {
          "name": "merch_type",
          "type": "string"
        },
        {
          "name": "quantity",
          "type": "uint256"
        },
        {
          "name": "price",
          "type": "uint256"
        },
        {
          "name": "description",
          "type": "string"
        },
        {
          "name": "soldto",
          "type": "address"
        },
        {
          "name": "rating",
          "type": "int256"
        },
        {
          "name": "sold",
          "type": "bool"
        }
      ],
      "payable": false,
      "stateMutability": "view",
      "type": "function"
    },
    {
      "constant": false,
      "inputs": [
        {
          "name": "member",
          "type": "address"
        },
        {
          "name": "rating",
          "type": "int256"
        }
      ],
      "name": "Rate",
      "outputs": [],
      "payable": false,
      "stateMutability": "nonpayable",
      "type": "function"
    },
    {
      "constant": false,
      "inputs": [
        {
          "name": "merch_type",
          "type": "string"
        },
        {
          "name": "quantity",
          "type": "uint256"
        },
        {
          "name": "price",
          "type": "uint256"
        },
        {
          "name": "description",
          "type": "string"
        }
      ],
      "name": "AddItem",
      "outputs": [],
      "payable": false,
      "stateMutability": "nonpayable",
      "type": "function"
    }
  ],
  "bytecode": "0x6060604052341561000f57600080fd5b6120ff8061001e6000396000f3006060604052600436106100fc576000357c0100000000000000000000000000000000000000000000000000000000900463ffffffff1680632054b92d146101015780632dd227cc1461012a5780633504d278146102b4578063399bb232146103975780637afd1446146103c3578063884c64401461051a578063898a4fca1461053d57806395c43c4f146106535780639814e358146107695780639eeb65d41461077e5780639fa71136146107a7578063a366493c146107d0578063abfbd931146107f9578063bb6bd037146108ab578063bfa1c1fe146108d7578063d9ae37c714610903578063e8e28fa014610a98578063ebf68ca314610ada575b600080fd5b341561010c57600080fd5b610114610b8c565b6040518082815260200191505060405180910390f35b341561013557600080fd5b610161600480803573ffffffffffffffffffffffffffffffffffffffff16906020019091905050610b95565b60405180806020018060200180602001848103845287818151815260200191508051906020019080838360005b838110156101a957808201518184015260208101905061018e565b50505050905090810190601f1680156101d65780820380516001836020036101000a031916815260200191505b50848103835286818151815260200191508051906020019080838360005b8381101561020f5780820151818401526020810190506101f4565b50505050905090810190601f16801561023c5780820380516001836020036101000a031916815260200191505b50848103825285818151815260200191508051906020019080838360005b8381101561027557808201518184015260208101905061025a565b50505050905090810190601f1680156102a25780820380516001836020036101000a031916815260200191505b50965050505050505060405180910390f35b34156102bf57600080fd5b610395600480803590602001908201803590602001908080601f0160208091040260200160405190810160405280939291908181526020018383808284378201915050505050509190803590602001908201803590602001908080601f0160208091040260200160405190810160405280939291908181526020018383808284378201915050505050509190803590602001908201803590602001908080601f01602080910402602001604051908101604052809392919081815260200183838082843782019150505050505091905050610dde565b005b34156103a257600080fd5b6103c16004808035906020019091908035906020019091905050610ee8565b005b34156103ce57600080fd5b6103e46004808035906020019091905050611060565b604051808873ffffffffffffffffffffffffffffffffffffffff1673ffffffffffffffffffffffffffffffffffffffff1681526020018060200187815260200186815260200180602001858152602001848152602001838103835289818151815260200191508051906020019080838360005b83811015610472578082015181840152602081019050610457565b50505050905090810190601f16801561049f5780820380516001836020036101000a031916815260200191505b50838103825286818151815260200191508051906020019080838360005b838110156104d85780820151818401526020810190506104bd565b50505050905090810190601f1680156105055780820380516001836020036101000a031916815260200191505b50995050505050505050505060405180910390f35b341561052557600080fd5b61053b6004808035906020019091905050611284565b005b341561054857600080fd5b61055e60048080359060200190919050506112b6565b604051808060200185815260200184815260200180602001838103835287818151815260200191508051906020019080838360005b838110156105ae578082015181840152602081019050610593565b50505050905090810190601f1680156105db5780820380516001836020036101000a031916815260200191505b50838103825284818151815260200191508051906020019080838360005b838110156106145780820151818401526020810190506105f9565b50505050905090810190601f1680156106415780820380516001836020036101000a031916815260200191505b50965050505050505060405180910390f35b341561065e57600080fd5b6106746004808035906020019091905050611492565b604051808060200185815260200184815260200180602001838103835287818151815260200191508051906020019080838360005b838110156106c45780820151818401526020810190506106a9565b50505050905090810190601f1680156106f15780820380516001836020036101000a031916815260200191505b50838103825284818151815260200191508051906020019080838360005b8381101561072a57808201518184015260208101905061070f565b50505050905090810190601f1680156107575780820380516001836020036101000a031916815260200191505b50965050505050505060405180910390f35b341561077457600080fd5b61077c61166e565b005b341561078957600080fd5b6107916116cb565b6040518082815260200191505060405180910390f35b34156107b257600080fd5b6107ba611715565b6040518082815260200191505060405180910390f35b34156107db57600080fd5b6107e361171f565b6040518082815260200191505060405180910390f35b341561080457600080fd5b6108a9600480803590602001908201803590602001908080601f0160208091040260200160405190810160405280939291908181526020018383808284378201915050505050509190803590602001909190803590602001909190803590602001908201803590602001908080601f01602080910402602001604051908101604052809392919081815260200183838082843782019150505050505091905050611769565b005b34156108b657600080fd5b6108d5600480803590602001909190803590602001909190505061190e565b005b34156108e257600080fd5b61090160048080359060200190919080359060200190919050506119ed565b005b341561090e57600080fd5b6109246004808035906020019091905050611ac2565b604051808a81526020018973ffffffffffffffffffffffffffffffffffffffff1673ffffffffffffffffffffffffffffffffffffffff16815260200180602001888152602001878152602001806020018673ffffffffffffffffffffffffffffffffffffffff1673ffffffffffffffffffffffffffffffffffffffff1681526020018581526020018415151515815260200183810383528a818151815260200191508051906020019080838360005b838110156109ee5780820151818401526020810190506109d3565b50505050905090810190601f168015610a1b5780820380516001836020036101000a031916815260200191505b50838103825287818151815260200191508051906020019080838360005b83811015610a54578082015181840152602081019050610a39565b50505050905090810190601f168015610a815780820380516001836020036101000a031916815260200191505b509b50505050505050505050505060405180910390f35b3415610aa357600080fd5b610ad8600480803573ffffffffffffffffffffffffffffffffffffffff16906020019091908035906020019091905050611d21565b005b3415610ae557600080fd5b610b8a600480803590602001908201803590602001908080601f0160208091040260200160405190810160405280939291908181526020018383808284378201915050505050509190803590602001909190803590602001909190803590602001908201803590602001908080601f01602080910402602001604051908101604052809392919081815260200183838082843782019150505050505091905050611e47565b005b60008054905090565b610b9d61201a565b610ba561201a565b610bad61201a565b6000600260008673ffffffffffffffffffffffffffffffffffffffff1673ffffffffffffffffffffffffffffffffffffffff1681526020019081526020016000209050806000018160010182600201828054600181600116156101000203166002900480601f016020809104026020016040519081016040528092919081815260200182805460018160011615610100020316600290048015610c915780601f10610c6657610100808354040283529160200191610c91565b820191906000526020600020905b815481529060010190602001808311610c7457829003601f168201915b50505050509250818054600181600116156101000203166002900480601f016020809104026020016040519081016040528092919081815260200182805460018160011615610100020316600290048015610d2d5780601f10610d0257610100808354040283529160200191610d2d565b820191906000526020600020905b815481529060010190602001808311610d1057829003601f168201915b50505050509150808054600181600116156101000203166002900480601f016020809104026020016040519081016040528092919081815260200182805460018160011615610100020316600290048015610dc95780601f10610d9e57610100808354040283529160200191610dc9565b820191906000526020600020905b815481529060010190602001808311610dac57829003601f168201915b50505050509050935093509350509193909250565b82600260003373ffffffffffffffffffffffffffffffffffffffff1673ffffffffffffffffffffffffffffffffffffffff1681526020019081526020016000206000019080519060200190610e3492919061202e565b5081600260003373ffffffffffffffffffffffffffffffffffffffff1673ffffffffffffffffffffffffffffffffffffffff1681526020019081526020016000206001019080519060200190610e8b92919061202e565b5080600260003373ffffffffffffffffffffffffffffffffffffffff1673ffffffffffffffffffffffffffffffffffffffff1681526020019081526020016000206002019080519060200190610ee292919061202e565b50505050565b7ffffffffffffffffffffffffffffffffffffffffffffffffffffffffffffffff6811215610f34577ffffffffffffffffffffffffffffffffffffffffffffffffffffffffffffffff690505b600a811315610f4257600a90505b3373ffffffffffffffffffffffffffffffffffffffff166003600084815260200190815260200160002060050160009054906101000a900473ffffffffffffffffffffffffffffffffffffffff1673ffffffffffffffffffffffffffffffffffffffff16148015610fc9575060006003600084815260200190815260200160002060060154145b1561105c5780600360008481526020019081526020016000206006018190555080600260006003600086815260200190815260200160002060050160009054906101000a900473ffffffffffffffffffffffffffffffffffffffff1673ffffffffffffffffffffffffffffffffffffffff1673ffffffffffffffffffffffffffffffffffffffff16815260200190815250505b5050565b600061106a61201a565b60008061107561201a565b6000806000600460008a815260200190815260200160002090508060000160009054906101000a900473ffffffffffffffffffffffffffffffffffffffff168160010182600201548360030154846004018560050154600260008860000160009054906101000a900473ffffffffffffffffffffffffffffffffffffffff1673ffffffffffffffffffffffffffffffffffffffff1673ffffffffffffffffffffffffffffffffffffffff16815260200190815260200160002060030154858054600181600116156101000203166002900480601f0160208091040260200160405190810160405280929190818152602001828054600181600116156101000203166002900480156111c75780601f1061119c576101008083540402835291602001916111c7565b820191906000526020600020905b8154815290600101906020018083116111aa57829003601f168201915b50505050509550828054600181600116156101000203166002900480601f0160208091040260200160405190810160405280929190818152602001828054600181600116156101000203166002900480156112635780601f1061123857610100808354040283529160200191611263565b820191906000526020600020905b81548152906001019060200180831161124657829003601f168201915b50505050509250975097509750975097509750975050919395979092949650565b60016003600083815260200190815260200160002060050160146101000a81548160ff02191690831515021790555050565b6112be61201a565b6000806112c961201a565b600080600260003373ffffffffffffffffffffffffffffffffffffffff1673ffffffffffffffffffffffffffffffffffffffff1681526020019081526020016000206006016000888152602001908152602001600020549150600360008381526020019081526020016000209050806001018160020154826003015483600401838054600181600116156101000203166002900480601f0160208091040260200160405190810160405280929190818152602001828054600181600116156101000203166002900480156113de5780601f106113b3576101008083540402835291602001916113de565b820191906000526020600020905b8154815290600101906020018083116113c157829003601f168201915b50505050509350808054600181600116156101000203166002900480601f01602080910402602001604051908101604052809291908181526020018280546001816001161561010002031660029004801561147a5780601f1061144f5761010080835404028352916020019161147a565b820191906000526020600020905b81548152906001019060200180831161145d57829003601f168201915b50505050509050955095509550955050509193509193565b61149a61201a565b6000806114a561201a565b600080600260003373ffffffffffffffffffffffffffffffffffffffff1673ffffffffffffffffffffffffffffffffffffffff1681526020019081526020016000206008016000888152602001908152602001600020549150600460008381526020019081526020016000209050806001018160020154826003015483600401838054600181600116156101000203166002900480601f0160208091040260200160405190810160405280929190818152602001828054600181600116156101000203166002900480156115ba5780601f1061158f576101008083540402835291602001916115ba565b820191906000526020600020905b81548152906001019060200180831161159d57829003601f168201915b50505050509350808054600181600116156101000203166002900480601f0160208091040260200160405190810160405280929190818152602001828054600181600116156101000203166002900480156116565780601f1061162b57610100808354040283529160200191611656565b820191906000526020600020905b81548152906001019060200180831161163957829003601f168201915b50505050509050955095509550955050509193509193565b6001600260003373ffffffffffffffffffffffffffffffffffffffff1673ffffffffffffffffffffffffffffffffffffffff16815260200190815260200160002060040160006101000a81548160ff021916908315150217905550565b6000600260003373ffffffffffffffffffffffffffffffffffffffff1673ffffffffffffffffffffffffffffffffffffffff16815260200190815260200160002060070154905090565b6000600154905090565b6000600260003373ffffffffffffffffffffffffffffffffffffffff1673ffffffffffffffffffffffffffffffffffffffff16815260200190815260200160002060090154905090565b600060016000815480929190600101919050559050336004600083815260200190815260200160002060000160006101000a81548173ffffffffffffffffffffffffffffffffffffffff021916908373ffffffffffffffffffffffffffffffffffffffff160217905550846004600083815260200190815260200160002060010190805190602001906117fd92919061202e565b508360046000838152602001908152602001600020600201819055508260046000838152602001908152602001600020600301819055508160046000838152602001908152602001600020600401908051906020019061185e92919061202e565b5080600260003373ffffffffffffffffffffffffffffffffffffffff1673ffffffffffffffffffffffffffffffffffffffff1681526020019081526020016000206008016000600260003373ffffffffffffffffffffffffffffffffffffffff1673ffffffffffffffffffffffffffffffffffffffff1681526020019081526020016000206009016000815480929190600101919050558152602001908152602001600020819055505050505050565b3373ffffffffffffffffffffffffffffffffffffffff166004600083815260200190815260200160002060000160009054906101000a900473ffffffffffffffffffffffffffffffffffffffff1673ffffffffffffffffffffffffffffffffffffffff1614156119e957336003600084815260200190815260200160002060050160006101000a81548173ffffffffffffffffffffffffffffffffffffffff021916908373ffffffffffffffffffffffffffffffffffffffff1602179055508160046000838152602001908152602001600020600501819055505b5050565b3373ffffffffffffffffffffffffffffffffffffffff166003600084815260200190815260200160002060000160009054906101000a900473ffffffffffffffffffffffffffffffffffffffff1673ffffffffffffffffffffffffffffffffffffffff161415611abe573360046000838152602001908152602001600020600601600084815260200190815260200160002060006101000a81548173ffffffffffffffffffffffffffffffffffffffff021916908373ffffffffffffffffffffffffffffffffffffffff1602179055505b5050565b600080611acd61201a565b600080611ad861201a565b600080600080600360008c815260200190815260200160002090508a8160000160009054906101000a900473ffffffffffffffffffffffffffffffffffffffff168260010183600201548460030154856004018660050160009054906101000a900473ffffffffffffffffffffffffffffffffffffffff16600260008960000160009054906101000a900473ffffffffffffffffffffffffffffffffffffffff1673ffffffffffffffffffffffffffffffffffffffff1673ffffffffffffffffffffffffffffffffffffffff168152602001908152602001600020600301548860050160149054906101000a900460ff16868054600181600116156101000203166002900480601f016020809104026020016040519081016040528092919081815260200182805460018160011615610100020316600290048015611c5e5780601f10611c3357610100808354040283529160200191611c5e565b820191906000526020600020905b815481529060010190602001808311611c4157829003601f168201915b50505050509650838054600181600116156101000203166002900480601f016020809104026020016040519081016040528092919081815260200182805460018160011615610100020316600290048015611cfa5780601f10611ccf57610100808354040283529160200191611cfa565b820191906000526020600020905b815481529060010190602001808311611cdd57829003601f168201915b50505050509350995099509950995099509950995099509950509193959799909294969850565b7ffffffffffffffffffffffffffffffffffffffffffffffffffffffffffffffff6811215611d6d577ffffffffffffffffffffffffffffffffffffffffffffffffffffffffffffffff690505b600a811315611d7b57600a90505b600260003373ffffffffffffffffffffffffffffffffffffffff1673ffffffffffffffffffffffffffffffffffffffff168152602001908152602001600020600301548102600260008473ffffffffffffffffffffffffffffffffffffffff1673ffffffffffffffffffffffffffffffffffffffff16815260200190815260200160002060050160003373ffffffffffffffffffffffffffffffffffffffff1673ffffffffffffffffffffffffffffffffffffffff168152602001908152602001600020819055505050565b6000806000815480929190600101919050559050336003600083815260200190815260200160002060000160006101000a81548173ffffffffffffffffffffffffffffffffffffffff021916908373ffffffffffffffffffffffffffffffffffffffff16021790555084600360008381526020019081526020016000206001019080519060200190611eda92919061202e565b5083600360008381526020019081526020016000206002018190555082600360008381526020019081526020016000206003018190555081600360008381526020019081526020016000206004019080519060200190611f3b92919061202e565b5060006003600083815260200190815260200160002060050160146101000a81548160ff02191690831515021790555080600260003373ffffffffffffffffffffffffffffffffffffffff1673ffffffffffffffffffffffffffffffffffffffff1681526020019081526020016000206006016000600260003373ffffffffffffffffffffffffffffffffffffffff1673ffffffffffffffffffffffffffffffffffffffff1681526020019081526020016000206007016000815480929190600101919050558152602001908152602001600020819055505050505050565b602060405190810160405280600081525090565b828054600181600116156101000203166002900490600052602060002090601f016020900481019282601f1061206f57805160ff191683800117855561209d565b8280016001018555821561209d579182015b8281111561209c578251825591602001919060010190612081565b5b5090506120aa91906120ae565b5090565b6120d091905b808211156120cc5760008160009055506001016120b4565b5090565b905600a165627a7a7230582095467b575747d245c22d301e5a959b873047cf09846742ffc914e900e28b85540029",
  "source": "pragma solidity ^0.4.11;\ncontract MarketPlace {\n    struct Member {\n        string name;\n        string surname;\n        string iddoc;\n        int rating;\n        bool fair;\n        mapping (address => int) rated;\n        mapping(uint => uint) itemList;\n        uint itemco;\n        mapping(uint => uint) adList;\n        uint adco;\n    }\n    \n    struct Item {\n        address seller;\n        string merch_type;\n        uint quantity;\n        uint price;\n        string description;\n        address acceptedby;\n        bool sold;\n        int feedback;\n    }\n    \n    struct BuyerAd {\n        address offerer;\n        string merch_type;\n        uint quantity;\n        uint price;\n        string description;\n        uint acceptedOffer;\n        mapping (uint => address) initems;\n    }\n    \n    uint orderid;\n    uint inquiryid;\n    mapping (address => Member) members;\n    mapping (uint => Item) items;\n    mapping (uint => BuyerAd) all_ads;\n    function NewMember(string name,string surname,string iddoc) public {\n        members[msg.sender].name=name;\n        members[msg.sender].surname=surname;\n        members[msg.sender].iddoc=iddoc;\n    }\n    \n    function GetMember(address m) public constant returns (string name, string surname, string id) {     \n        Member mem = members[m];\n        return (mem.name,mem.surname,mem.iddoc);\n    }\n    \n    function AddItem(string merch_type,uint quantity,uint price,string description) public {\n        uint id=orderid++;\n        items[id].seller=msg.sender;\n        items[id].merch_type=merch_type;\n        items[id].quantity=quantity;\n        items[id].price=price;\n        items[id].description=description;\n        items[id].sold=false;\n        members[msg.sender].itemList[members[msg.sender].itemco++]=id;\n    }\n    \n    function CountMyItems() public constant returns (uint count) {     \n        count=members[msg.sender].itemco;\n    }\n    \n    function GetMyItem(uint i) public constant returns (string merch_type, uint quantity, uint price,string description) {     \n        uint uuid = members[msg.sender].itemList[i];\n        Item item = items[uuid];\n        return (item.merch_type, \n            item.quantity, \n            item.price, \n            item.description);\n    }\n    \n    function CountMyAds() public constant returns (uint count) {     \n        count=members[msg.sender].adco;\n    }\n    \n    function GetMyAd(uint i) public constant returns (string merch_type, uint quantity, uint price,string description) {     \n        uint uuid = members[msg.sender].adList[i];\n        BuyerAd ad = all_ads[uuid];\n        return (ad.merch_type, \n            ad.quantity, \n            ad.price, \n            ad.description);\n            \n    }\n    \n    function CountAllItems() public constant returns (uint count) {     \n        count=orderid;\n    }\n    \n    function CountAllAds() public constant returns (uint count) {     \n        count=inquiryid;\n    }\n    \n    function GetItem(uint i) public constant returns (uint id, address seller, string merch_type, uint quantity, uint price,string description,address soldto, int rating, bool sold) {     \n        Item item = items[i];\n        return (\n            i,\n            item.seller, \n            item.merch_type, \n            item.quantity, \n            item.price, \n            item.description,\n            item.acceptedby,\n            members[item.seller].rating,\n            item.sold);\n    }\n    \n    function GetAd(uint i) public constant returns (address offerer, string merch_type, uint quantity, uint price, string description,uint accepted , int rating) {     \n        BuyerAd inq = all_ads[i];\n        return (inq.offerer, inq.merch_type, \n            inq.quantity, \n            inq.price, \n            inq.description,\n            inq.acceptedOffer,\n            members[inq.offerer].rating);\n    }\n    \n    function OrderFeedback(uint id, int f) public {\n        if(f<-10){f=-10;}\n        if(f>10){f=10;}\n        if(items[id].acceptedby==msg.sender&&items[id].feedback==0)\n        {\n           items[id].feedback=f;\n           members[items[id].acceptedby].rating+f;\n        }\n    }\n    \n    function AddBuyerAd(string merch_type,uint quantity,uint price,string description) public {\n        uint id=inquiryid++;\n        all_ads[id].offerer=msg.sender;\n        all_ads[id].merch_type=merch_type;\n        all_ads[id].quantity=quantity;\n        all_ads[id].price=price;\n        all_ads[id].description=description;\n        members[msg.sender].adList[members[msg.sender].adco++]=id;\n    } \n    \n    function SendItem(uint idoffer, uint idinquiry) public {\n        if(items[idoffer].seller==msg.sender)\n        {\n            all_ads[idinquiry].initems[idoffer]=msg.sender;\n        }\n    }\n    \n    function AcceptItem(uint idoffer, uint idinquiry) public {\n        if(all_ads[idinquiry].offerer==msg.sender)\n        {\n            items[idoffer].acceptedby=msg.sender;\n            all_ads[idinquiry].acceptedOffer=idoffer;\n        }\n    }\n    \n    function BuyItem(uint itemid) public {\n        items[itemid].sold = true;\n    }\n    \n    \n    function BecomeFair() public {\n        members[msg.sender].fair=true;\n    }\n    \n    function Rate(address member, int rating) public {\n        if(rating<-10){rating=-10;}\n        if(rating>10){rating=10;}\n        members[member].rated[msg.sender]=rating*(members[msg.sender].rating);\n    }\n   \n}",
  "sourcePath": "/root/pyrito/contracts/MarketPlace.sol",
  "compiler": {
    "name": "solc",
    "version": "0.4.18+commit.9cf6e910.Emscripten.clang"
  },
  "schemaVersion": "1.0.1",
  "updatedAt": "2017-12-05T12:52:17.814Z"
}